{
  "contractName": "ModelReverseAuction",
  "abi": [
    {
      "anonymous": false,
      "inputs": [
        {
          "indexed": true,
          "internalType": "uint256",
          "name": "auctionId",
          "type": "uint256"
        },
        {
          "indexed": true,
          "internalType": "address",
          "name": "buyer",
          "type": "address"
        },
        {
          "indexed": false,
          "internalType": "uint256",
          "name": "minBid",
          "type": "uint256"
        },
        {
          "indexed": false,
          "internalType": "uint256",
          "name": "bidEndTime",
          "type": "uint256"
        }
      ],
      "name": "AuctionCreated",
      "type": "event"
    },
    {
      "anonymous": false,
      "inputs": [
        {
          "indexed": true,
          "internalType": "uint256",
          "name": "auctionId",
          "type": "uint256"
        },
        {
          "indexed": true,
          "internalType": "address",
          "name": "winner",
          "type": "address"
        },
        {
          "indexed": false,
          "internalType": "uint256",
          "name": "winningBidAmount",
          "type": "uint256"
        }
      ],
      "name": "AuctionFinalized",
      "type": "event"
    },
    {
      "anonymous": false,
      "inputs": [
        {
          "indexed": true,
          "internalType": "uint256",
          "name": "auctionId",
          "type": "uint256"
        },
        {
          "indexed": true,
          "internalType": "address",
          "name": "bidder",
          "type": "address"
        },
        {
          "indexed": false,
          "internalType": "uint256",
          "name": "amount",
          "type": "uint256"
        },
        {
          "indexed": false,
          "internalType": "string",
          "name": "modelCID",
          "type": "string"
        }
      ],
      "name": "BidSubmitted",
      "type": "event"
    },
    {
      "anonymous": false,
      "inputs": [
        {
          "indexed": true,
          "internalType": "uint256",
          "name": "auctionId",
          "type": "uint256"
        },
        {
          "indexed": true,
          "internalType": "address",
          "name": "bidder",
          "type": "address"
        },
        {
          "indexed": false,
          "internalType": "uint256",
          "name": "amount",
          "type": "uint256"
        }
      ],
      "name": "DepositRefunded",
      "type": "event"
    },
    {
      "anonymous": false,
      "inputs": [
        {
          "indexed": true,
          "internalType": "uint256",
          "name": "auctionId",
          "type": "uint256"
        },
        {
          "indexed": true,
          "internalType": "address",
          "name": "buyer",
          "type": "address"
        },
        {
          "indexed": true,
          "internalType": "address",
          "name": "seller",
          "type": "address"
        },
        {
          "indexed": false,
          "internalType": "uint256",
          "name": "amount",
          "type": "uint256"
        }
      ],
      "name": "PaymentMade",
      "type": "event"
    },
    {
      "inputs": [],
      "name": "auctionCounter",
      "outputs": [
        {
          "internalType": "uint256",
          "name": "",
          "type": "uint256"
        }
      ],
      "stateMutability": "view",
      "type": "function",
      "constant": true
    },
    {
      "inputs": [
        {
          "internalType": "uint256",
          "name": "",
          "type": "uint256"
        }
      ],
      "name": "auctions",
      "outputs": [
        {
          "internalType": "address payable",
          "name": "buyer",
          "type": "address"
        },
        {
          "internalType": "string",
          "name": "auctionDetails",
          "type": "string"
        },
        {
          "internalType": "uint256",
          "name": "minBid",
          "type": "uint256"
        },
        {
          "internalType": "uint256",
          "name": "deposit",
          "type": "uint256"
        },
        {
          "internalType": "uint256",
          "name": "bidEndTime",
          "type": "uint256"
        },
        {
          "internalType": "enum ModelReverseAuction.AuctionStatus",
          "name": "status",
          "type": "uint8"
        },
        {
          "internalType": "address",
          "name": "winningBidder",
          "type": "address"
        },
        {
          "internalType": "uint256",
          "name": "winningBidAmount",
          "type": "uint256"
        },
        {
          "internalType": "bool",
          "name": "isPaid",
          "type": "bool"
        }
      ],
      "stateMutability": "view",
      "type": "function",
      "constant": true
    },
    {
      "inputs": [
        {
          "internalType": "uint256",
          "name": "",
          "type": "uint256"
        },
        {
          "internalType": "uint256",
          "name": "",
          "type": "uint256"
        }
      ],
      "name": "bids",
      "outputs": [
        {
          "internalType": "address",
          "name": "bidder",
          "type": "address"
        },
        {
          "internalType": "uint256",
          "name": "amount",
          "type": "uint256"
        },
        {
          "internalType": "string",
          "name": "modelCID",
          "type": "string"
        },
        {
          "internalType": "bool",
          "name": "isWinner",
          "type": "bool"
        },
        {
          "internalType": "bool",
          "name": "depositReturned",
          "type": "bool"
        }
      ],
      "stateMutability": "view",
      "type": "function",
      "constant": true
    },
    {
      "inputs": [
        {
          "internalType": "string",
          "name": "_auctionDetails",
          "type": "string"
        },
        {
          "internalType": "uint256",
          "name": "_minBid",
          "type": "uint256"
        },
        {
          "internalType": "uint256",
          "name": "_deposit",
          "type": "uint256"
        },
        {
          "internalType": "uint256",
          "name": "_bidDurationInSeconds",
          "type": "uint256"
        }
      ],
      "name": "createAuction",
      "outputs": [
        {
          "internalType": "uint256",
          "name": "",
          "type": "uint256"
        }
      ],
      "stateMutability": "nonpayable",
      "type": "function"
    },
    {
      "inputs": [
        {
          "internalType": "uint256",
          "name": "_auctionId",
          "type": "uint256"
        },
        {
          "internalType": "string",
          "name": "_modelCID",
          "type": "string"
        }
      ],
      "name": "submitBid",
      "outputs": [],
      "stateMutability": "payable",
      "type": "function",
      "payable": true
    },
    {
      "inputs": [
        {
          "internalType": "uint256",
          "name": "_auctionId",
          "type": "uint256"
        },
        {
          "internalType": "uint256",
          "name": "_winningBidIndex",
          "type": "uint256"
        }
      ],
      "name": "finalizeAuction",
      "outputs": [],
      "stateMutability": "nonpayable",
      "type": "function"
    },
    {
      "inputs": [
        {
          "internalType": "uint256",
          "name": "_auctionId",
          "type": "uint256"
        }
      ],
      "name": "makePayment",
      "outputs": [],
      "stateMutability": "payable",
      "type": "function",
      "payable": true
    },
    {
      "inputs": [
        {
          "internalType": "uint256",
          "name": "_auctionId",
          "type": "uint256"
        },
        {
          "internalType": "address[]",
          "name": "_losers",
          "type": "address[]"
        }
      ],
      "name": "refundDeposits",
      "outputs": [],
      "stateMutability": "nonpayable",
      "type": "function"
    },
    {
      "inputs": [
        {
          "internalType": "uint256",
          "name": "_auctionId",
          "type": "uint256"
        }
      ],
      "name": "getAuction",
      "outputs": [
        {
          "components": [
            {
              "internalType": "address payable",
              "name": "buyer",
              "type": "address"
            },
            {
              "internalType": "string",
              "name": "auctionDetails",
              "type": "string"
            },
            {
              "internalType": "uint256",
              "name": "minBid",
              "type": "uint256"
            },
            {
              "internalType": "uint256",
              "name": "deposit",
              "type": "uint256"
            },
            {
              "internalType": "uint256",
              "name": "bidEndTime",
              "type": "uint256"
            },
            {
              "internalType": "enum ModelReverseAuction.AuctionStatus",
              "name": "status",
              "type": "uint8"
            },
            {
              "internalType": "address",
              "name": "winningBidder",
              "type": "address"
            },
            {
              "internalType": "uint256",
              "name": "winningBidAmount",
              "type": "uint256"
            },
            {
              "internalType": "bool",
              "name": "isPaid",
              "type": "bool"
            }
          ],
          "internalType": "struct ModelReverseAuction.Auction",
          "name": "",
          "type": "tuple"
        }
      ],
      "stateMutability": "view",
      "type": "function",
      "constant": true
    },
    {
      "inputs": [
        {
          "internalType": "uint256",
          "name": "_auctionId",
          "type": "uint256"
        }
      ],
      "name": "getBidsCount",
      "outputs": [
        {
          "internalType": "uint256",
          "name": "",
          "type": "uint256"
        }
      ],
      "stateMutability": "view",
      "type": "function",
      "constant": true
    },
    {
      "inputs": [
        {
          "internalType": "uint256",
          "name": "_auctionId",
          "type": "uint256"
        },
        {
          "internalType": "uint256",
          "name": "_index",
          "type": "uint256"
        }
      ],
      "name": "getBid",
      "outputs": [
        {
          "components": [
            {
              "internalType": "address",
              "name": "bidder",
              "type": "address"
            },
            {
              "internalType": "uint256",
              "name": "amount",
              "type": "uint256"
            },
            {
              "internalType": "string",
              "name": "modelCID",
              "type": "string"
            },
            {
              "internalType": "bool",
              "name": "isWinner",
              "type": "bool"
            },
            {
              "internalType": "bool",
              "name": "depositReturned",
              "type": "bool"
            }
          ],
          "internalType": "struct ModelReverseAuction.Bid",
          "name": "",
          "type": "tuple"
        }
      ],
      "stateMutability": "view",
      "type": "function",
      "constant": true
    }
  ],
  "bytecode": "0x608060405234801561001057600080fd5b50612be3806100206000396000f3fe60806040526004361061009c5760003560e01c8063571a26a011610064578063571a26a01461017c578063582c7ffd146101c157806378bd7935146101fe5780637b3c4baa1461023b578063a7e766441461027c578063c12ceaab146102a75761009c565b8063115a93c8146100a15780633a01135e146100ca5780634008f9c0146100e65780634e463734146101235780635114cb5214610160575b600080fd5b3480156100ad57600080fd5b506100c860048036038101906100c391906119ab565b6102d0565b005b6100e460048036038101906100df9190611b31565b610645565b005b3480156100f257600080fd5b5061010d60048036038101906101089190611b8d565b610920565b60405161011a9190611bc9565b60405180910390f35b34801561012f57600080fd5b5061014a60048036038101906101459190611be4565b610940565b6040516101579190611bc9565b60405180910390f35b61017a60048036038101906101759190611b8d565b610c19565b005b34801561018857600080fd5b506101a3600480360381019061019e9190611b8d565b610f2c565b6040516101b899989796959493929190611dda565b60405180910390f35b3480156101cd57600080fd5b506101e860048036038101906101e391906119ab565b61105c565b6040516101f59190611f5b565b60405180910390f35b34801561020a57600080fd5b5061022560048036038101906102209190611b8d565b6111d2565b6040516102329190612060565b60405180910390f35b34801561024757600080fd5b50610262600480360381019061025d91906119ab565b6113bb565b604051610273959493929190612082565b60405180910390f35b34801561028857600080fd5b506102916114d0565b60405161029e9190611bc9565b60405180910390f35b3480156102b357600080fd5b506102ce60048036038101906102c991906121d0565b6114d6565b005b813373ffffffffffffffffffffffffffffffffffffffff1660008083815260200190815260200160002060000160009054906101000a900473ffffffffffffffffffffffffffffffffffffffff1673ffffffffffffffffffffffffffffffffffffffff1614610374576040517f08c379a000000000000000000000000000000000000000000000000000000000815260040161036b9061229e565b60405180910390fd5b82600080600281111561038a57610389611d27565b5b60008084815260200190815260200160002060050160009054906101000a900460ff1660028111156103bf576103be611d27565b5b146103ff576040517f08c379a00000000000000000000000000000000000000000000000000000000081526004016103f690612330565b60405180910390fd5b600080600087815260200190815260200160002090508060040154421161045b576040517f08c379a00000000000000000000000000000000000000000000000000000000081526004016104529061239c565b60405180910390fd5b600160008781526020019081526020016000208054905085106104b3576040517f08c379a00000000000000000000000000000000000000000000000000000000081526004016104aa90612408565b60405180910390fd5b60018160050160006101000a81548160ff021916908360028111156104db576104da611d27565b5b0217905550600060016000888152602001908152602001600020868154811061050757610506612428565b5b9060005260206000209060040201905060018160030160006101000a81548160ff0219169083151502179055508060000160009054906101000a900473ffffffffffffffffffffffffffffffffffffffff168260050160016101000a81548173ffffffffffffffffffffffffffffffffffffffff021916908373ffffffffffffffffffffffffffffffffffffffff1602179055508060010154826006018190555060018160030160016101000a81548160ff0219169083151502179055508060000160009054906101000a900473ffffffffffffffffffffffffffffffffffffffff1673ffffffffffffffffffffffffffffffffffffffff16877f4d9113a1377d665eaa1f9168a9c9080f2e488cb820b10149de3d6d2e0f2780c783600101546040516106349190611bc9565b60405180910390a350505050505050565b81600080600281111561065b5761065a611d27565b5b60008084815260200190815260200160002060050160009054906101000a900460ff1660028111156106905761068f611d27565b5b146106d0576040517f08c379a00000000000000000000000000000000000000000000000000000000081526004016106c790612330565b60405180910390fd5b60008060008681526020019081526020016000209050806004015442111561072d576040517f08c379a0000000000000000000000000000000000000000000000000000000008152600401610724906124a3565b60405180910390fd5b8060020154816003015461074191906124f2565b3414610782576040517f08c379a000000000000000000000000000000000000000000000000000000000815260040161077990612598565b60405180910390fd5b600160008681526020019081526020016000206040518060a001604052803373ffffffffffffffffffffffffffffffffffffffff1681526020018360030154346107cc91906125b8565b815260200186815260200160001515815260200160001515815250908060018154018082558091505060019003906000526020600020906004020160009091909190915060008201518160000160006101000a81548173ffffffffffffffffffffffffffffffffffffffff021916908373ffffffffffffffffffffffffffffffffffffffff16021790555060208201518160010155604082015181600201908161087691906127f8565b5060608201518160030160006101000a81548160ff02191690831515021790555060808201518160030160016101000a81548160ff02191690831515021790555050503373ffffffffffffffffffffffffffffffffffffffff16857f25e6f67ed3a4f1523db627163a8f9de502ca1fe40fe6dd94a8a12a085981b68283600301543461090291906125b8565b876040516109119291906128ca565b60405180910390a35050505050565b600060016000838152602001908152602001600020805490509050919050565b6000808411610984576040517f08c379a000000000000000000000000000000000000000000000000000000000815260040161097b90612946565b60405180910390fd5b600082116109c7576040517f08c379a00000000000000000000000000000000000000000000000000000000081526004016109be906129b2565b60405180910390fd5b600260008154809291906109da906129d2565b9190505550600060025490506040518061012001604052803373ffffffffffffffffffffffffffffffffffffffff1681526020018781526020018681526020018581526020018442610a2c91906124f2565b815260200160006002811115610a4557610a44611d27565b5b8152602001600073ffffffffffffffffffffffffffffffffffffffff168152602001600081526020016000151581525060008083815260200190815260200160002060008201518160000160006101000a81548173ffffffffffffffffffffffffffffffffffffffff021916908373ffffffffffffffffffffffffffffffffffffffff1602179055506020820151816001019081610ae391906127f8565b5060408201518160020155606082015181600301556080820151816004015560a08201518160050160006101000a81548160ff02191690836002811115610b2d57610b2c611d27565b5b021790555060c08201518160050160016101000a81548173ffffffffffffffffffffffffffffffffffffffff021916908373ffffffffffffffffffffffffffffffffffffffff16021790555060e082015181600601556101008201518160070160006101000a81548160ff0219169083151502179055509050503373ffffffffffffffffffffffffffffffffffffffff16817fc9050d42180a61cb0d9ebb8ad118b62fe6eab12cf12ff752c4a0cc7da9ddf6278760008086815260200190815260200160002060040154604051610c05929190612a1a565b60405180910390a380915050949350505050565b803373ffffffffffffffffffffffffffffffffffffffff1660008083815260200190815260200160002060000160009054906101000a900473ffffffffffffffffffffffffffffffffffffffff1673ffffffffffffffffffffffffffffffffffffffff1614610cbd576040517f08c379a0000000000000000000000000000000000000000000000000000000008152600401610cb49061229e565b60405180910390fd5b816001806002811115610cd357610cd2611d27565b5b60008084815260200190815260200160002060050160009054906101000a900460ff166002811115610d0857610d07611d27565b5b14610d48576040517f08c379a0000000000000000000000000000000000000000000000000000000008152600401610d3f90612330565b60405180910390fd5b600080600086815260200190815260200160002090508060070160009054906101000a900460ff1615610db0576040517f08c379a0000000000000000000000000000000000000000000000000000000008152600401610da790612a8f565b60405180910390fd5b80600601543414610df6576040517f08c379a0000000000000000000000000000000000000000000000000000000008152600401610ded90612b21565b60405180910390fd5b60018160070160006101000a81548160ff021916908315150217905550600081600301548260060154610e2991906124f2565b90508160050160019054906101000a900473ffffffffffffffffffffffffffffffffffffffff1673ffffffffffffffffffffffffffffffffffffffff166108fc829081150290604051600060405180830381858888f19350505050158015610e95573d6000803e3d6000fd5b508160050160019054906101000a900473ffffffffffffffffffffffffffffffffffffffff1673ffffffffffffffffffffffffffffffffffffffff163373ffffffffffffffffffffffffffffffffffffffff16877fd51bb0381ff8d9476c9493a30eafdb1966dca4b0c0db1a2d4e244a3a8b16ffb88560060154604051610f1c9190611bc9565b60405180910390a4505050505050565b60006020528060005260406000206000915090508060000160009054906101000a900473ffffffffffffffffffffffffffffffffffffffff1690806001018054610f759061261b565b80601f0160208091040260200160405190810160405280929190818152602001828054610fa19061261b565b8015610fee5780601f10610fc357610100808354040283529160200191610fee565b820191906000526020600020905b815481529060010190602001808311610fd157829003601f168201915b5050505050908060020154908060030154908060040154908060050160009054906101000a900460ff16908060050160019054906101000a900473ffffffffffffffffffffffffffffffffffffffff16908060060154908060070160009054906101000a900460ff16905089565b61106461188c565b60016000848152602001908152602001600020828154811061108957611088612428565b5b90600052602060002090600402016040518060a00160405290816000820160009054906101000a900473ffffffffffffffffffffffffffffffffffffffff1673ffffffffffffffffffffffffffffffffffffffff1673ffffffffffffffffffffffffffffffffffffffff168152602001600182015481526020016002820180546111129061261b565b80601f016020809104026020016040519081016040528092919081815260200182805461113e9061261b565b801561118b5780601f106111605761010080835404028352916020019161118b565b820191906000526020600020905b81548152906001019060200180831161116e57829003601f168201915b505050505081526020016003820160009054906101000a900460ff161515151581526020016003820160019054906101000a900460ff161515151581525050905092915050565b6111da6118d5565b600080838152602001908152602001600020604051806101200160405290816000820160009054906101000a900473ffffffffffffffffffffffffffffffffffffffff1673ffffffffffffffffffffffffffffffffffffffff1673ffffffffffffffffffffffffffffffffffffffff16815260200160018201805461125e9061261b565b80601f016020809104026020016040519081016040528092919081815260200182805461128a9061261b565b80156112d75780601f106112ac576101008083540402835291602001916112d7565b820191906000526020600020905b8154815290600101906020018083116112ba57829003601f168201915b505050505081526020016002820154815260200160038201548152602001600482015481526020016005820160009054906101000a900460ff16600281111561132357611322611d27565b5b600281111561133557611334611d27565b5b81526020016005820160019054906101000a900473ffffffffffffffffffffffffffffffffffffffff1673ffffffffffffffffffffffffffffffffffffffff1673ffffffffffffffffffffffffffffffffffffffff168152602001600682015481526020016007820160009054906101000a900460ff1615151515815250509050919050565b600160205281600052604060002081815481106113d757600080fd5b9060005260206000209060040201600091509150508060000160009054906101000a900473ffffffffffffffffffffffffffffffffffffffff16908060010154908060020180546114279061261b565b80601f01602080910402602001604051908101604052809291908181526020018280546114539061261b565b80156114a05780601f10611475576101008083540402835291602001916114a0565b820191906000526020600020905b81548152906001019060200180831161148357829003601f168201915b5050505050908060030160009054906101000a900460ff16908060030160019054906101000a900460ff16905085565b60025481565b813373ffffffffffffffffffffffffffffffffffffffff1660008083815260200190815260200160002060000160009054906101000a900473ffffffffffffffffffffffffffffffffffffffff1673ffffffffffffffffffffffffffffffffffffffff161461157a576040517f08c379a00000000000000000000000000000000000000000000000000000000081526004016115719061229e565b60405180910390fd5b60008060008581526020019081526020016000209050600160028111156115a4576115a3611d27565b5b8160050160009054906101000a900460ff1660028111156115c8576115c7611d27565b5b1480156115e357508060070160009054906101000a900460ff165b611622576040517f08c379a000000000000000000000000000000000000000000000000000000000815260040161161990612b8d565b60405180910390fd5b60005b8351811015611665576116528585838151811061164557611644612428565b5b602002602001015161166c565b808061165d906129d2565b915050611625565b5050505050565b600060016000848152602001908152602001600020905060005b8180549050811015611886578273ffffffffffffffffffffffffffffffffffffffff168282815481106116bc576116bb612428565b5b906000526020600020906004020160000160009054906101000a900473ffffffffffffffffffffffffffffffffffffffff1673ffffffffffffffffffffffffffffffffffffffff16148015611740575081818154811061171f5761171e612428565b5b906000526020600020906004020160030160009054906101000a900460ff16155b801561177b575081818154811061175a57611759612428565b5b906000526020600020906004020160030160019054906101000a900460ff16155b1561187357600182828154811061179557611794612428565b5b906000526020600020906004020160030160016101000a81548160ff02191690831515021790555060008060008681526020019081526020016000206003015490508373ffffffffffffffffffffffffffffffffffffffff166108fc829081150290604051600060405180830381858888f1935050505015801561181d573d6000803e3d6000fd5b508373ffffffffffffffffffffffffffffffffffffffff16857f69187e59ebb7ab44cba5434886e4e6cde1412568f3483279dc99de772cb25405836040516118659190611bc9565b60405180910390a350611886565b808061187e906129d2565b915050611686565b50505050565b6040518060a00160405280600073ffffffffffffffffffffffffffffffffffffffff16815260200160008152602001606081526020016000151581526020016000151581525090565b604051806101200160405280600073ffffffffffffffffffffffffffffffffffffffff168152602001606081526020016000815260200160008152602001600081526020016000600281111561192e5761192d611d27565b5b8152602001600073ffffffffffffffffffffffffffffffffffffffff168152602001600081526020016000151581525090565b6000604051905090565b600080fd5b600080fd5b6000819050919050565b61198881611975565b811461199357600080fd5b50565b6000813590506119a58161197f565b92915050565b600080604083850312156119c2576119c161196b565b5b60006119d085828601611996565b92505060206119e185828601611996565b9150509250929050565b600080fd5b600080fd5b6000601f19601f8301169050919050565b7f4e487b7100000000000000000000000000000000000000000000000000000000600052604160045260246000fd5b611a3e826119f5565b810181811067ffffffffffffffff82111715611a5d57611a5c611a06565b5b80604052505050565b6000611a70611961565b9050611a7c8282611a35565b919050565b600067ffffffffffffffff821115611a9c57611a9b611a06565b5b611aa5826119f5565b9050602081019050919050565b82818337600083830152505050565b6000611ad4611acf84611a81565b611a66565b905082815260208101848484011115611af057611aef6119f0565b5b611afb848285611ab2565b509392505050565b600082601f830112611b1857611b176119eb565b5b8135611b28848260208601611ac1565b91505092915050565b60008060408385031215611b4857611b4761196b565b5b6000611b5685828601611996565b925050602083013567ffffffffffffffff811115611b7757611b76611970565b5b611b8385828601611b03565b9150509250929050565b600060208284031215611ba357611ba261196b565b5b6000611bb184828501611996565b91505092915050565b611bc381611975565b82525050565b6000602082019050611bde6000830184611bba565b92915050565b60008060008060808587031215611bfe57611bfd61196b565b5b600085013567ffffffffffffffff811115611c1c57611c1b611970565b5b611c2887828801611b03565b9450506020611c3987828801611996565b9350506040611c4a87828801611996565b9250506060611c5b87828801611996565b91505092959194509250565b600073ffffffffffffffffffffffffffffffffffffffff82169050919050565b6000611c9282611c67565b9050919050565b611ca281611c87565b82525050565b600081519050919050565b600082825260208201905092915050565b60005b83811015611ce2578082015181840152602081019050611cc7565b60008484015250505050565b6000611cf982611ca8565b611d038185611cb3565b9350611d13818560208601611cc4565b611d1c816119f5565b840191505092915050565b7f4e487b7100000000000000000000000000000000000000000000000000000000600052602160045260246000fd5b60038110611d6757611d66611d27565b5b50565b6000819050611d7882611d56565b919050565b6000611d8882611d6a565b9050919050565b611d9881611d7d565b82525050565b6000611da982611c67565b9050919050565b611db981611d9e565b82525050565b60008115159050919050565b611dd481611dbf565b82525050565b600061012082019050611df0600083018c611c99565b8181036020830152611e02818b611cee565b9050611e11604083018a611bba565b611e1e6060830189611bba565b611e2b6080830188611bba565b611e3860a0830187611d8f565b611e4560c0830186611db0565b611e5260e0830185611bba565b611e60610100830184611dcb565b9a9950505050505050505050565b611e7781611d9e565b82525050565b611e8681611975565b82525050565b600082825260208201905092915050565b6000611ea882611ca8565b611eb28185611e8c565b9350611ec2818560208601611cc4565b611ecb816119f5565b840191505092915050565b611edf81611dbf565b82525050565b600060a083016000830151611efd6000860182611e6e565b506020830151611f106020860182611e7d565b5060408301518482036040860152611f288282611e9d565b9150506060830151611f3d6060860182611ed6565b506080830151611f506080860182611ed6565b508091505092915050565b60006020820190508181036000830152611f758184611ee5565b905092915050565b611f8681611c87565b82525050565b611f9581611d7d565b82525050565b600061012083016000830151611fb46000860182611f7d565b5060208301518482036020860152611fcc8282611e9d565b9150506040830151611fe16040860182611e7d565b506060830151611ff46060860182611e7d565b5060808301516120076080860182611e7d565b5060a083015161201a60a0860182611f8c565b5060c083015161202d60c0860182611e6e565b5060e083015161204060e0860182611e7d565b50610100830151612055610100860182611ed6565b508091505092915050565b6000602082019050818103600083015261207a8184611f9b565b905092915050565b600060a0820190506120976000830188611db0565b6120a46020830187611bba565b81810360408301526120b68186611cee565b90506120c56060830185611dcb565b6120d26080830184611dcb565b9695505050505050565b600067ffffffffffffffff8211156120f7576120f6611a06565b5b602082029050602081019050919050565b600080fd5b61211681611d9e565b811461212157600080fd5b50565b6000813590506121338161210d565b92915050565b600061214c612147846120dc565b611a66565b9050808382526020820190506020840283018581111561216f5761216e612108565b5b835b8181101561219857806121848882612124565b845260208401935050602081019050612171565b5050509392505050565b600082601f8301126121b7576121b66119eb565b5b81356121c7848260208601612139565b91505092915050565b600080604083850312156121e7576121e661196b565b5b60006121f585828601611996565b925050602083013567ffffffffffffffff81111561221657612215611970565b5b612222858286016121a2565b9150509250929050565b7f4f6e6c79207468652061756374696f6e2062757965722063616e2063616c6c2060008201527f746869732e000000000000000000000000000000000000000000000000000000602082015250565b6000612288602583611cb3565b91506122938261222c565b604082019050919050565b600060208201905081810360008301526122b78161227b565b9050919050565b7f41756374696f6e206973206e6f7420696e20746865207265717569726564207360008201527f74617475732e0000000000000000000000000000000000000000000000000000602082015250565b600061231a602683611cb3565b9150612325826122be565b604082019050919050565b600060208201905081810360008301526123498161230d565b9050919050565b7f42696464696e6720706572696f64206973206e6f74206f766572207965742e00600082015250565b6000612386601f83611cb3565b915061239182612350565b602082019050919050565b600060208201905081810360008301526123b581612379565b9050919050565b7f496e76616c69642077696e6e696e672062696420696e6465782e000000000000600082015250565b60006123f2601a83611cb3565b91506123fd826123bc565b602082019050919050565b60006020820190508181036000830152612421816123e5565b9050919050565b7f4e487b7100000000000000000000000000000000000000000000000000000000600052603260045260246000fd5b7f42696464696e6720706572696f642068617320656e6465642e00000000000000600082015250565b600061248d601983611cb3565b915061249882612457565b602082019050919050565b600060208201905081810360008301526124bc81612480565b9050919050565b7f4e487b7100000000000000000000000000000000000000000000000000000000600052601160045260246000fd5b60006124fd82611975565b915061250883611975565b92508282019050808211156125205761251f6124c3565b5b92915050565b7f4d7573742073656e642065786163746c79206465706f736974202b206d696e2060008201527f6269642e00000000000000000000000000000000000000000000000000000000602082015250565b6000612582602483611cb3565b915061258d82612526565b604082019050919050565b600060208201905081810360008301526125b181612575565b9050919050565b60006125c382611975565b91506125ce83611975565b92508282039050818111156125e6576125e56124c3565b5b92915050565b7f4e487b7100000000000000000000000000000000000000000000000000000000600052602260045260246000fd5b6000600282049050600182168061263357607f821691505b602082108103612646576126456125ec565b5b50919050565b60008190508160005260206000209050919050565b60006020601f8301049050919050565b600082821b905092915050565b6000600883026126ae7fffffffffffffffffffffffffffffffffffffffffffffffffffffffffffffffff82612671565b6126b88683612671565b95508019841693508086168417925050509392505050565b6000819050919050565b60006126f56126f06126eb84611975565b6126d0565b611975565b9050919050565b6000819050919050565b61270f836126da565b61272361271b826126fc565b84845461267e565b825550505050565b600090565b61273861272b565b612743818484612706565b505050565b5b818110156127675761275c600082612730565b600181019050612749565b5050565b601f8211156127ac5761277d8161264c565b61278684612661565b81016020851015612795578190505b6127a96127a185612661565b830182612748565b50505b505050565b600082821c905092915050565b60006127cf600019846008026127b1565b1980831691505092915050565b60006127e883836127be565b9150826002028217905092915050565b61280182611ca8565b67ffffffffffffffff81111561281a57612819611a06565b5b612824825461261b565b61282f82828561276b565b600060209050601f8311600181146128625760008415612850578287015190505b61285a85826127dc565b8655506128c2565b601f1984166128708661264c565b60005b8281101561289857848901518255600182019150602085019450602081019050612873565b868310156128b557848901516128b1601f8916826127be565b8355505b6001600288020188555050505b505050505050565b60006040820190506128df6000830185611bba565b81810360208301526128f18184611cee565b90509392505050565b7f4d696e20626964206d75737420626520706f7369746976652e00000000000000600082015250565b6000612930601983611cb3565b915061293b826128fa565b602082019050919050565b6000602082019050818103600083015261295f81612923565b9050919050565b7f426964206475726174696f6e206d75737420626520706f7369746976652e0000600082015250565b600061299c601e83611cb3565b91506129a782612966565b602082019050919050565b600060208201905081810360008301526129cb8161298f565b9050919050565b60006129dd82611975565b91507fffffffffffffffffffffffffffffffffffffffffffffffffffffffffffffffff8203612a0f57612a0e6124c3565b5b600182019050919050565b6000604082019050612a2f6000830185611bba565b612a3c6020830184611bba565b9392505050565b7f5061796d656e742068617320616c7265616479206265656e206d6164652e0000600082015250565b6000612a79601e83611cb3565b9150612a8482612a43565b602082019050919050565b60006020820190508181036000830152612aa881612a6c565b9050919050565b7f4d7573742073656e64207468652065786163742077696e6e696e67206269642060008201527f616d6f756e742e00000000000000000000000000000000000000000000000000602082015250565b6000612b0b602783611cb3565b9150612b1682612aaf565b604082019050919050565b60006020820190508181036000830152612b3a81612afe565b9050919050565b7f41756374696f6e206e6f742066696e616c697a656420616e6420706169642e00600082015250565b6000612b77601f83611cb3565b9150612b8282612b41565b602082019050919050565b60006020820190508181036000830152612ba681612b6a565b905091905056fea26469706673582212208d78ad8d1a2866fa11b40f8f4d6b50611446514e1a597955fbc2d723a638a81964736f6c63430008130033",
  "immutableReferences": {},
  "source": "// SPDX-License-Identifier: MIT\r\npragma solidity >=0.8.0 <0.9.0;  // 更新为 0.8.x 版本\r\n\r\n\r\n/**\r\n * @title ModelReverseAuction\r\n * @dev 一个用于模型反向拍卖的智能合约，结合链下计算进行复杂评估。\r\n */\r\ncontract ModelReverseAuction {\r\n    // 拍卖状态枚举\r\n    enum AuctionStatus { Open, Closed, Finalized }\r\n\r\n    // 拍卖结构体\r\n    struct Auction {\r\n        address payable buyer;       // 买家地址\r\n        string auctionDetails;       // 拍卖需求描述（例如IPFS哈希）\r\n        uint256 minBid;              // 最低出价（保留价）\r\n        uint256 deposit;             // 投标所需押金\r\n        uint256 bidEndTime;          // 投标截止时间\r\n        AuctionStatus status;        // 当前状态\r\n        address winningBidder;       // 中标者地址\r\n        uint256 winningBidAmount;    // 中标金额\r\n        bool isPaid;                 // 是否已完成支付\r\n    }\r\n\r\n    // 投标结构体\r\n    struct Bid {\r\n        address bidder;              // 投标人地址\r\n        uint256 amount;              // 出价金额\r\n        string modelCID;             // 模型内容标识符（例如IPFS哈希）\r\n        bool isWinner;               // 是否中标\r\n        bool depositReturned;        // 押金是否已退还\r\n    }\r\n\r\n    // 状态变量\r\n    mapping(uint256 => Auction) public auctions; // 拍卖ID到拍卖的映射\r\n    mapping(uint256 => Bid[]) public bids; // 拍卖ID到投标列表的映射\r\n    uint256 public auctionCounter;   // 拍卖计数器\r\n\r\n    // 事件，用于前端监听和日志记录\r\n    event AuctionCreated(uint256 indexed auctionId, address indexed buyer, uint256 minBid, uint256 bidEndTime);\r\n    event BidSubmitted(uint256 indexed auctionId, address indexed bidder, uint256 amount, string modelCID);\r\n    event AuctionFinalized(uint256 indexed auctionId, address indexed winner, uint256 winningBidAmount);\r\n    event PaymentMade(uint256 indexed auctionId, address indexed buyer, address indexed seller, uint256 amount);\r\n    event DepositRefunded(uint256 indexed auctionId, address indexed bidder, uint256 amount);\r\n\r\n    // 修饰器：只有拍卖的买家可以操作\r\n    modifier onlyBuyer(uint256 _auctionId) {\r\n        require(auctions[_auctionId].buyer == msg.sender, \"Only the auction buyer can call this.\");\r\n        _;\r\n    }\r\n\r\n    // 修饰器：拍卖必须处于特定状态\r\n    modifier onlyStatus(uint256 _auctionId, AuctionStatus _status) {\r\n        require(auctions[_auctionId].status == _status, \"Auction is not in the required status.\");\r\n        _;\r\n    }\r\n\r\n    /**\r\n     * @dev 买家创建一个新的拍卖\r\n     * @param _auctionDetails 拍卖需求的描述（或IPFS哈希）\r\n     * @param _minBid 最低出价（保留价）\r\n     * @param _deposit 投标人需要缴纳的押金\r\n     * @param _bidDurationInSeconds 投标阶段的持续时间（秒）\r\n     */\r\n    function createAuction(\r\n        string memory _auctionDetails,\r\n        uint256 _minBid,\r\n        uint256 _deposit,\r\n        uint256 _bidDurationInSeconds\r\n    ) public returns (uint256) {\r\n        require(_minBid > 0, \"Min bid must be positive.\");\r\n        require(_bidDurationInSeconds > 0, \"Bid duration must be positive.\");\r\n\r\n        auctionCounter++;\r\n        uint256 newAuctionId = auctionCounter;\r\n\r\n        auctions[newAuctionId] = Auction({\r\n            buyer: payable(msg.sender),\r\n            auctionDetails: _auctionDetails,\r\n            minBid: _minBid,\r\n            deposit: _deposit,\r\n            bidEndTime: block.timestamp + _bidDurationInSeconds,\r\n            status: AuctionStatus.Open,\r\n            winningBidder: address(0),\r\n            winningBidAmount: 0,\r\n            isPaid: false\r\n        });\r\n\r\n        emit AuctionCreated(newAuctionId, msg.sender, _minBid, auctions[newAuctionId].bidEndTime);\r\n        return newAuctionId;\r\n    }\r\n\r\n    /**\r\n     * @dev 投标人向一个开放的拍卖提交投标\r\n     * @param _auctionId 拍卖ID\r\n     * @param _modelCID 模型内容的IPFS哈希\r\n     */\r\n    function submitBid(uint256 _auctionId, string memory _modelCID) \r\n        public \r\n        payable \r\n        onlyStatus(_auctionId, AuctionStatus.Open) \r\n    {\r\n        Auction storage auction = auctions[_auctionId];\r\n        require(block.timestamp <= auction.bidEndTime, \"Bidding period has ended.\");\r\n        require(msg.value == auction.deposit + auction.minBid, \"Must send exactly deposit + min bid.\");\r\n\r\n        // 这里可以添加更多业务逻辑，例如检查_modelCID格式等\r\n\r\n        bids[_auctionId].push(Bid({\r\n            bidder: msg.sender,\r\n            amount: msg.value - auction.deposit, // 实际出价是发送的总金额减去押金\r\n            modelCID: _modelCID,\r\n            isWinner: false,\r\n            depositReturned: false\r\n        }));\r\n\r\n        emit BidSubmitted(_auctionId, msg.sender, msg.value - auction.deposit, _modelCID);\r\n    }\r\n\r\n    /**\r\n     * @dev 买家公布最终结果。这个函数应该在链下计算完成后被调用。\r\n     * @param _auctionId 拍卖ID\r\n     * @param _winningBidIndex 中标投标在bids数组中的索引\r\n     */\r\n    function finalizeAuction(uint256 _auctionId, uint256 _winningBidIndex) \r\n        public \r\n        onlyBuyer(_auctionId) \r\n        onlyStatus(_auctionId, AuctionStatus.Open) \r\n    {\r\n        Auction storage auction = auctions[_auctionId];\r\n        require(block.timestamp > auction.bidEndTime, \"Bidding period is not over yet.\");\r\n        require(_winningBidIndex < bids[_auctionId].length, \"Invalid winning bid index.\");\r\n\r\n        // 关闭拍卖\r\n        auction.status = AuctionStatus.Closed;\r\n        \r\n        Bid storage winningBid = bids[_auctionId][_winningBidIndex];\r\n        winningBid.isWinner = true;\r\n        \r\n        auction.winningBidder = winningBid.bidder;\r\n        auction.winningBidAmount = winningBid.amount;\r\n\r\n        // 将中标者的押金标记为不需退还（将在支付时一并领取）\r\n        winningBid.depositReturned = true;\r\n\r\n        emit AuctionFinalized(_auctionId, winningBid.bidder, winningBid.amount);\r\n    }\r\n\r\n    /**\r\n     * @dev 买家向中标者支付款项。\r\n     * 注意：在实际应用中，可能需要更复杂的支付逻辑，如托管服务。\r\n     */\r\n    function makePayment(uint256 _auctionId) \r\n        public \r\n        payable \r\n        onlyBuyer(_auctionId) \r\n        onlyStatus(_auctionId, AuctionStatus.Closed) \r\n    {\r\n        Auction storage auction = auctions[_auctionId];\r\n        require(!auction.isPaid, \"Payment has already been made.\");\r\n        require(msg.value == auction.winningBidAmount, \"Must send the exact winning bid amount.\");\r\n\r\n        auction.isPaid = true;\r\n\r\n        // 向中标者支付：中标金额 + 返还的押金\r\n        uint256 totalToPay = auction.winningBidAmount + auction.deposit;\r\n        payable(auction.winningBidder).transfer(totalToPay);\r\n\r\n        emit PaymentMade(_auctionId, msg.sender, auction.winningBidder, auction.winningBidAmount);\r\n    }\r\n\r\n    /**\r\n     * @dev 为未中标的投标人退还押金。\r\n     * 为了节省Gas，可以采用“提取”模式，让投标人自己来取回押金。\r\n     * 这里提供一个由买家批量触发退款的方式（在投标人不多时可行）。\r\n     */\r\n    function refundDeposits(uint256 _auctionId, address[] memory _losers) \r\n        public \r\n        onlyBuyer(_auctionId) \r\n    {\r\n        Auction storage auction = auctions[_auctionId];\r\n        // 只有在拍卖结束且已付款后，才能退还押金，以确保状态清晰。\r\n        require(auction.status == AuctionStatus.Closed && auction.isPaid, \"Auction not finalized and paid.\");\r\n\r\n        for (uint i = 0; i < _losers.length; i++) {\r\n            _refundSingleBidder(_auctionId, _losers[i]);\r\n        }\r\n    }\r\n\r\n    /**\r\n     * @dev 内部函数，处理单个投标人的押金退还。\r\n     */\r\n    function _refundSingleBidder(uint256 _auctionId, address _bidder) internal {\r\n        Bid[] storage bidList = bids[_auctionId];\r\n        for (uint j = 0; j < bidList.length; j++) {\r\n            if (bidList[j].bidder == _bidder && !bidList[j].isWinner && !bidList[j].depositReturned) {\r\n                bidList[j].depositReturned = true;\r\n                uint256 depositAmount = auctions[_auctionId].deposit;\r\n                payable(_bidder).transfer(depositAmount);\r\n                emit DepositRefunded(_auctionId, _bidder, depositAmount);\r\n                break; // 假设一个地址在一个拍卖中只投一次标\r\n            }\r\n        }\r\n    }\r\n\r\n    // 辅助视图函数，用于前端获取信息\r\n    function getAuction(uint256 _auctionId) public view returns (Auction memory) {\r\n        return auctions[_auctionId];\r\n    }\r\n\r\n    function getBidsCount(uint256 _auctionId) public view returns (uint256) {\r\n        return bids[_auctionId].length;\r\n    }\r\n\r\n    function getBid(uint256 _auctionId, uint256 _index) public view returns (Bid memory) {\r\n        return bids[_auctionId][_index];\r\n    }\r\n}",
  "sourcePath": "D:\\Truffle_test\\contracts\\auction.sol",
  "compiler": {
    "name": "solc",
    "version": "0.8.19+commit.7dd6d404.Emscripten.clang"
  },
  "schemaVersion": "3.4.16",
  "updatedAt": "2025-11-27T14:23:56.659Z",
  "networkType": "ethereum",
  "devdoc": {
    "details": "一个用于模型反向拍卖的智能合约，结合链下计算进行复杂评估。",
    "kind": "dev",
    "methods": {
      "createAuction(string,uint256,uint256,uint256)": {
        "details": "买家创建一个新的拍卖",
        "params": {
          "_auctionDetails": "拍卖需求的描述（或IPFS哈希）",
          "_bidDurationInSeconds": "投标阶段的持续时间（秒）",
          "_deposit": "投标人需要缴纳的押金",
          "_minBid": "最低出价（保留价）"
        }
      },
      "finalizeAuction(uint256,uint256)": {
        "details": "买家公布最终结果。这个函数应该在链下计算完成后被调用。",
        "params": {
          "_auctionId": "拍卖ID",
          "_winningBidIndex": "中标投标在bids数组中的索引"
        }
      },
      "makePayment(uint256)": {
        "details": "买家向中标者支付款项。 注意：在实际应用中，可能需要更复杂的支付逻辑，如托管服务。"
      },
      "refundDeposits(uint256,address[])": {
        "details": "为未中标的投标人退还押金。 为了节省Gas，可以采用“提取”模式，让投标人自己来取回押金。 这里提供一个由买家批量触发退款的方式（在投标人不多时可行）。"
      },
      "submitBid(uint256,string)": {
        "details": "投标人向一个开放的拍卖提交投标",
        "params": {
          "_auctionId": "拍卖ID",
          "_modelCID": "模型内容的IPFS哈希"
        }
      }
    },
    "title": "ModelReverseAuction",
    "version": 1
  },
  "userdoc": {
    "kind": "user",
    "methods": {},
    "version": 1
  }
}